:1000000012C024C023C022C021C020C01FC01EC0F7
:100010001DC01CC01BC01AC019C018C017C016C014
:1000200015C014C013C011241FBECFE5D4E0DEBF3D
:10003000CDBF10E0A0E6B0E0E4E9F1E002C0059039
:100040000D92A437B107D9F792D0A2C0D9CF82952B
:10005000807F92B3986092BB95E89A95F1F7000083
:1000600092B39F7092BB92B3892B82BB82B3877F7E
:1000700082BB85E88A95F1F700000895CF93C82FD9
:10008000611104C082B38B7F82BB03C082B38460E2
:1000900082BB8C2F82958F70DADF8C2FD8DFCF91C7
:1000A000089561E0EBDF08958FE295E70197F1F79E
:1000B00000C0000083E0CBDF8FE39FE10197F1F701
:1000C00000C0000083E0C3DF87EC90E00197F1F708
:1000D00000C0000083E0BBDF8FEC97E00197F1F7F1
:1000E00000C0000082E0B3DF8FEC97E00197F1F7EA
:1000F00000C0000060E088E2C1DF8FEC97E001976C
:10010000F1F700C0000060E08CE0B8DF8FEC97E012
:100110000197F1F700C0000060E086E0AFDF8FECF0
:1001200097E00197F1F700C00000089590E4699FFF
:10013000800D112460E08068A1DF08950F931F9364
:10014000CF93DF938C01C0E0D0E002C0AADF2196FC
:10015000F801EC0FFD1F80818111F8CFDF91CF9165
:100160001F910F91089512BA8FEF81BB0895FBDFA5
:100170009BDF60E070E080E0D9DF80E690E0DEDFCA
:1001800061E070E083E0D2DF8DE690E0D7DFFFCF63
:04019000F894FFCF11
:1001940048656C6C6F20576F726C6421004B656B03
:0401A4004C6F6C0030
:00000001FF
